{
  "contractName": "SimpleStorage",
  "abi": [
    {
      "constant": true,
      "inputs": [
        {
          "name": "",
          "type": "address"
        },
        {
          "name": "",
          "type": "uint256"
        }
      ],
      "name": "status",
      "outputs": [
        {
          "name": "",
          "type": "string"
        },
        {
          "name": "date",
          "type": "string"
        },
        {
          "name": "socialWorker",
          "type": "string"
        },
        {
          "name": "reportIpfs",
          "type": "string"
        }
      ],
      "payable": false,
      "stateMutability": "view",
      "type": "function",
      "signature": "0xadc25c01"
    },
    {
      "constant": true,
      "inputs": [
        {
          "name": "",
          "type": "address"
        }
      ],
      "name": "agency",
      "outputs": [
        {
          "name": "name",
          "type": "string"
        },
        {
          "name": "location",
          "type": "string"
        }
      ],
      "payable": false,
      "stateMutability": "view",
      "type": "function",
      "signature": "0x71acf83c"
    },
    {
      "constant": true,
      "inputs": [
        {
          "name": "",
          "type": "address"
        },
        {
          "name": "",
          "type": "uint256"
        }
      ],
      "name": "cases",
      "outputs": [
        {
          "name": "caseNo",
          "type": "uint256"
        },
        {
          "name": "childName",
          "type": "string"
        },
        {
          "name": "lawyer",
          "type": "string"
        },
        {
          "name": "date",
          "type": "string"
        },
        {
          "name": "socialWorker",
          "type": "string"
        },
        {
          "name": "court",
          "type": "string"
        },
        {
          "name": "caseHash",
          "type": "string"
        }
      ],
      "payable": false,
      "stateMutability": "view",
      "type": "function",
      "signature": "0x7b85968a"
    },
    {
      "constant": true,
      "inputs": [
        {
          "name": "",
          "type": "address"
        },
        {
          "name": "",
          "type": "uint256"
        }
      ],
      "name": "registeredHome",
      "outputs": [
        {
          "name": "id",
          "type": "uint256"
        },
        {
          "name": "firstName",
          "type": "string"
        },
        {
          "name": "lastName",
          "type": "string"
        },
        {
          "name": "rating",
          "type": "uint256"
        },
        {
          "name": "spouse",
          "type": "string"
        },
        {
          "name": "houseAddress",
          "type": "string"
        },
        {
          "name": "dateJoined",
          "type": "string"
        },
        {
          "name": "employer",
          "type": "string"
        },
        {
          "name": "backgroundIpfs",
          "type": "string"
        }
      ],
      "payable": false,
      "stateMutability": "view",
      "type": "function",
      "signature": "0xa37f2e4e"
    },
    {
      "constant": true,
      "inputs": [
        {
          "name": "",
          "type": "address"
        },
        {
          "name": "",
          "type": "uint256"
        }
      ],
      "name": "fosterKid",
      "outputs": [
        {
          "name": "id",
          "type": "uint256"
        },
        {
          "name": "firstName",
          "type": "string"
        },
        {
          "name": "lastName",
          "type": "string"
        }
      ],
      "payable": false,
      "stateMutability": "view",
      "type": "function",
      "signature": "0xcd6bbcec"
    },
    {
      "constant": false,
      "inputs": [
        {
          "name": "_address",
          "type": "address"
        },
        {
          "name": "_status",
          "type": "string"
        }
      ],
      "name": "setUser",
      "outputs": [],
      "payable": false,
      "stateMutability": "nonpayable",
      "type": "function",
      "signature": "0x3f1a51b8"
    },
    {
      "constant": true,
      "inputs": [
        {
          "name": "_address",
          "type": "address"
        }
      ],
      "name": "getUser",
      "outputs": [
        {
          "name": "",
          "type": "string"
        }
      ],
      "payable": false,
      "stateMutability": "view",
      "type": "function",
      "signature": "0x6f77926b"
    },
    {
      "constant": true,
      "inputs": [
        {
          "name": "_firstName",
          "type": "string"
        },
        {
          "name": "_lastName",
          "type": "string"
        },
        {
          "name": "_address",
          "type": "address"
        },
        {
          "name": "_houseAddress",
          "type": "string"
        },
        {
          "name": "_dateJoined",
          "type": "string"
        }
      ],
      "name": "viewHomes",
      "outputs": [
        {
          "components": [
            {
              "name": "id",
              "type": "uint256"
            },
            {
              "name": "firstName",
              "type": "string"
            },
            {
              "name": "lastName",
              "type": "string"
            },
            {
              "name": "rating",
              "type": "uint256"
            },
            {
              "name": "spouse",
              "type": "string"
            },
            {
              "name": "houseAddress",
              "type": "string"
            },
            {
              "name": "dateJoined",
              "type": "string"
            },
            {
              "name": "employer",
              "type": "string"
            },
            {
              "name": "backgroundIpfs",
              "type": "string"
            },
            {
              "components": [
                {
                  "name": "reportNo",
                  "type": "uint256"
                },
                {
                  "name": "date",
                  "type": "string"
                },
                {
                  "name": "socialWorker",
                  "type": "string"
                },
                {
                  "name": "reportIpfs",
                  "type": "string"
                }
              ],
              "name": "reports",
              "type": "tuple[]"
            }
          ],
          "name": "",
          "type": "tuple[]"
        }
      ],
      "payable": false,
      "stateMutability": "view",
      "type": "function",
      "signature": "0x4f3cf99b"
    },
    {
      "constant": true,
      "inputs": [
        {
          "name": "id",
          "type": "uint256"
        },
        {
          "name": "_reportNo",
          "type": "uint256"
        },
        {
          "name": "date",
          "type": "string"
        },
        {
          "name": "_socialWorker",
          "type": "string"
        },
        {
          "name": "hash",
          "type": "string"
        }
      ],
      "name": "viewHome",
      "outputs": [
        {
          "components": [
            {
              "name": "id",
              "type": "uint256"
            },
            {
              "name": "firstName",
              "type": "string"
            },
            {
              "name": "lastName",
              "type": "string"
            },
            {
              "components": [
                {
                  "name": "reportNo",
                  "type": "uint256"
                },
                {
                  "name": "date",
                  "type": "string"
                },
                {
                  "name": "socialWorker",
                  "type": "string"
                },
                {
                  "name": "reportIpfs",
                  "type": "string"
                }
              ],
              "name": "rating",
              "type": "uint256"
            },
            {
              "name": "spouse",
              "type": "string"
            },
            {
              "name": "houseAddress",
              "type": "string"
            },
            {
              "name": "dateJoined",
              "type": "string"
            },
            {
              "name": "employer",
              "type": "string"
            },
            {
              "name": "backgroundIpfs",
              "type": "string"
            },
            {
              "components": [
                {
                  "name": "reportNo",
                  "type": "uint256"
                },
                {
                  "name": "date",
                  "type": "string"
                },
                {
                  "name": "socialWorker",
                  "type": "string"
                },
                {
                  "name": "reportIpfs",
                  "type": "string"
                }
              ],
              "name": "reports",
              "type": "tuple[]"
            }
          ],
          "name": "",
          "type": "tuple"
        }
      ],
      "payable": false,
      "stateMutability": "view",
      "type": "function",
      "signature": "0xb820f869"
    },
    {
      "constant": true,
      "inputs": [
        {
          "name": "_caseNo",
          "type": "uint256"
        },
        {
          "name": "_name",
          "type": "string"
        },
        {
          "name": "_lawyer",
          "type": "string"
        },
        {
          "name": "_date",
          "type": "string"
        },
        {
          "name": "_socialWorker",
          "type": "string"
        },
        {
          "name": "_court",
          "type": "string"
        },
        {
          "name": "hash",
          "type": "string"
        }
      ],
      "name": "viewFosterKids",
      "outputs": [
        {
          "components": [
            {
              "name": "id",
              "type": "uint256"
            },
            {
              "name": "firstName",
              "type": "string"
            },
            {
              "name": "lastName",
              "type": "string"
            },
            {
              "components": [
                {
                  "name": "reportNo",
                  "type": "uint256"
                },
                {
                  "name": "date",
                  "type": "string"
                },
                {
                  "name": "socialWorker",
                  "type": "string"
                },
                {
                  "name": "reportIpfs",
                  "type": "string"
                }
              ],
              "name": "reports",
              "type": "tuple[]"
            }
          ],
          "name": "",
          "type": "tuple[]"
        }
      ],
      "payable": false,
      "stateMutability": "view",
      "type": "function",
      "signature": "0x53c7fd61"
    },
    {
      "constant": true,
      "inputs": [
        {
          "name": "id",
          "type": "uint256"
        }
      ],
      "name": "viewFosterKid",
      "outputs": [
        {
          "components": [
            {
              "name": "id",
              "type": "uint256"
            },
            {
              "name": "firstName",
              "type": "string"
            },
            {
              "name": "lastName",
              "type": "string"
            },
            {
              "name": "reports",
              "type": "tuple[]",
              "components": [
                {
                  "name": "reportNo",
                  "type": "uint256"
                },
                {
                  "name": "date",
                  "type": "string"
                },
                {
                  "name": "socialWorker",
                  "type": "string"
                },
                {
                  "name": "reportIpfs",
                  "type": "string"
                }
              ]
            },
            {
              "name": "socialWorker",
              "type": "string"
            },
            {
              "name": "court",
              "type": "string"
            },
            {
              "name": "caseHash",
              "type": "string"
            }
          ],
          "name": "",
          "type": "tuple"
        }
      ],
      "payable": false,
      "stateMutability": "view",
      "type": "function",
      "signature": "0x5109b991"
    },
    {
      "constant": false,
      "inputs": [
        {
          "name": "_caseNo",
          "type": "uint256"
        },
        {
          "name": "_name",
          "type": "string"
        },
        {
          "name": "_lawyer",
          "type": "string"
        },
        {
          "name": "_date",
          "type": "string"
        },
        {
          "name": "_socialWorker",
          "type": "string"
        },
        {
          "name": "_court",
          "type": "string"
        },
        {
          "name": "hash",
          "type": "string"
        }
      ],
      "name": "addCase",
      "outputs": [],
      "payable": false,
      "stateMutability": "nonpayable",
      "type": "function",
      "signature": "0xd8552fb9"
    },
    {
      "constant": true,
      "inputs": [],
      "name": "viewCases",
      "outputs": [
        {
          "components": [
            {
              "name": "caseNo",
              "type": "uint256"
            },
            {
              "name": "childName",
              "type": "string"
            },
            {
              "name": "lawyer",
              "type": "string"
            },
            {
              "name": "date",
              "type": "string"
            },
            {
              "name": "socialWorker",
              "type": "string"
            },
            {
              "name": "court",
              "type": "string"
            },
            {
              "name": "caseHash",
              "type": "string"
            }
          ],
          "name": "",
          "type": "tuple[]"
        }
      ],
      "payable": false,
      "stateMutability": "view",
      "type": "function",
      "signature": "0xdc76e1e5"
    },
    {
      "constant": true,
      "inputs": [
        {
          "name": "id",
          "type": "uint256"
        }
      ],
      "name": "viewCase",
      "outputs": [
        {
          "components": [
            {
              "name": "caseNo",
              "type": "uint256"
            },
            {
              "name": "childName",
              "type": "string"
            },
            {
              "name": "lawyer",
              "type": "string"
            },
            {
              "name": "date",
              "type": "string"
            },
            {
              "name": "socialWorker",
              "type": "string"
            },
            {
              "name": "court",
              "type": "string"
            },
            {
              "name": "caseHash",
              "type": "string"
            }
          ],
          "name": "",
          "type": "tuple"
        }
      ],
      "payable": false,
      "stateMutability": "view",
      "type": "function",
      "signature": "0x1716e567"
    }
  ],
  "bytecode": "0x608060405234801561001057600080fd5b50614b2e806100206000396000f3fe6080604052600436106100d0576000357c0100000000000000000000000000000000000000000000000000000000900463ffffffff1680631716e567146100d55780633f1a51b8146101125780635109b9911461013b578063645b8b1b1461017857806367975ae3146101b55780636f77926b146101f257806371acf83c1461022f5780637b85968a1461026d578063a37f2e4e146102b0578063c8cefe84146102f5578063cc54cbfe14610320578063cd6bbcec1461034b578063d8552fb91461038a578063dc76e1e5146103b3575b600080fd5b3480156100e157600080fd5b506100fc60048036036100f79190810190613e04565b6103de565b604051610109919061479a565b60405180910390f35b34801561011e57600080fd5b5061013960048036036101349190810190613d74565b610981565b005b34801561014757600080fd5b50610162600480360361015d9190810190613e04565b610a13565b60405161016f9190614778565b60405180910390f35b34801561018457600080fd5b5061019f600480360361019a9190810190613d4b565b610f7e565b6040516101ac91906146db565b60405180910390f35b3480156101c157600080fd5b506101dc60048036036101d79190810190613e04565b61102e565b6040516101e99190614756565b60405180910390f35b3480156101fe57600080fd5b5061021960048036036102149190810190613d4b565b6118ce565b60405161022691906146fd565b60405180910390f35b34801561023b57600080fd5b5061025660048036036102519190810190613d4b565b6119af565b60405161026492919061471f565b60405180910390f35b34801561027957600080fd5b50610294600480360361028f9190810190613dc8565b611b03565b6040516102a79796959493929190614801565b60405180910390f35b3480156102bc57600080fd5b506102d760048036036102d29190810190613dc8565b611ef1565b6040516102ec9998979695949392919061489a565b60405180910390f35b34801561030157600080fd5b5061030a612383565b6040516103179190614675565b60405180910390f35b34801561032c57600080fd5b50610335612bfe565b6040516103429190614697565b60405180910390f35b34801561035757600080fd5b50610372600480360361036d9190810190613dc8565b613144565b604051610381939291906147bc565b60405180910390f35b34801561039657600080fd5b506103b160048036036103ac9190810190613e2d565b6132ba565b005b3480156103bf57600080fd5b506103c861356f565b6040516103d591906146b9565b60405180910390f35b6103e6613aed565b60405160200180807f4167656e63790000000000000000000000000000000000000000000000000000815250600601905060405160208183030381529060405280519060200120600160003373ffffffffffffffffffffffffffffffffffffffff1673ffffffffffffffffffffffffffffffffffffffff16815260200190815260200160002060405160200180828054600181600116156101000203166002900480156104ca5780601f106104a85761010080835404028352918201916104ca565b820191906000526020600020905b8154815290600101906020018083116104b6575b5050915050604051602081830303815290604052805190602001201415156104f157600080fd5b6060600460003373ffffffffffffffffffffffffffffffffffffffff1673ffffffffffffffffffffffffffffffffffffffff168152602001908152602001600020805480602002602001604051908101604052809291908181526020016000905b8282101561095b578382906000526020600020906007020160e0604051908101604052908160008201548152602001600182018054600181600116156101000203166002900480601f0160208091040260200160405190810160405280929190818152602001828054600181600116156101000203166002900480156106195780601f106105ee57610100808354040283529160200191610619565b820191906000526020600020905b8154815290600101906020018083116105fc57829003601f168201915b50505050508152602001600282018054600181600116156101000203166002900480601f0160208091040260200160405190810160405280929190818152602001828054600181600116156101000203166002900480156106bb5780601f10610690576101008083540402835291602001916106bb565b820191906000526020600020905b81548152906001019060200180831161069e57829003601f168201915b50505050508152602001600382018054600181600116156101000203166002900480601f01602080910402602001604051908101604052809291908181526020018280546001816001161561010002031660029004801561075d5780601f106107325761010080835404028352916020019161075d565b820191906000526020600020905b81548152906001019060200180831161074057829003601f168201915b50505050508152602001600482018054600181600116156101000203166002900480601f0160208091040260200160405190810160405280929190818152602001828054600181600116156101000203166002900480156107ff5780601f106107d4576101008083540402835291602001916107ff565b820191906000526020600020905b8154815290600101906020018083116107e257829003601f168201915b50505050508152602001600582018054600181600116156101000203166002900480601f0160208091040260200160405190810160405280929190818152602001828054600181600116156101000203166002900480156108a15780601f10610876576101008083540402835291602001916108a1565b820191906000526020600020905b81548152906001019060200180831161088457829003601f168201915b50505050508152602001600682018054600181600116156101000203166002900480601f0160208091040260200160405190810160405280929190818152602001828054600181600116156101000203166002900480156109435780601f1061091857610100808354040283529160200191610943565b820191906000526020600020905b81548152906001019060200180831161092657829003601f168201915b50505050508152505081526020019060010190610552565b505050509050808381518110151561096f57fe5b90602001906020020151915050919050565b8173ffffffffffffffffffffffffffffffffffffffff163373ffffffffffffffffffffffffffffffffffffffff161415156109bb57600080fd5b80600160008473ffffffffffffffffffffffffffffffffffffffff1673ffffffffffffffffffffffffffffffffffffffff1681526020019081526020016000209080519060200190610a0e929190613b2b565b505050565b610a1b613bab565b60405160200180807f4167656e63790000000000000000000000000000000000000000000000000000815250600601905060405160208183030381529060405280519060200120600160003373ffffffffffffffffffffffffffffffffffffffff1673ffffffffffffffffffffffffffffffffffffffff1681526020019081526020016000206040516020018082805460018160011615610100020316600290048015610aff5780601f10610add576101008083540402835291820191610aff565b820191906000526020600020905b815481529060010190602001808311610aeb575b505091505060405160208183030381529060405280519060200120141515610b2657600080fd5b6060600360003373ffffffffffffffffffffffffffffffffffffffff1673ffffffffffffffffffffffffffffffffffffffff168152602001908152602001600020805480602002602001604051908101604052809291908181526020016000905b82821015610f5857838290600052602060002090600402016080604051908101604052908160008201548152602001600182018054600181600116156101000203166002900480601f016020809104026020016040519081016040528092919081815260200182805460018160011615610100020316600290048015610c4e5780601f10610c2357610100808354040283529160200191610c4e565b820191906000526020600020905b815481529060010190602001808311610c3157829003601f168201915b50505050508152602001600282018054600181600116156101000203166002900480601f016020809104026020016040519081016040528092919081815260200182805460018160011615610100020316600290048015610cf05780601f10610cc557610100808354040283529160200191610cf0565b820191906000526020600020905b815481529060010190602001808311610cd357829003601f168201915b5050505050815260200160038201805480602002602001604051908101604052809291908181526020016000905b82821015610f4157838290600052602060002090600402016080604051908101604052908160008201548152602001600182018054600181600116156101000203166002900480601f016020809104026020016040519081016040528092919081815260200182805460018160011615610100020316600290048015610de55780601f10610dba57610100808354040283529160200191610de5565b820191906000526020600020905b815481529060010190602001808311610dc857829003601f168201915b50505050508152602001600282018054600181600116156101000203166002900480601f016020809104026020016040519081016040528092919081815260200182805460018160011615610100020316600290048015610e875780601f10610e5c57610100808354040283529160200191610e87565b820191906000526020600020905b815481529060010190602001808311610e6a57829003601f168201915b50505050508152602001600382018054600181600116156101000203166002900480601f016020809104026020016040519081016040528092919081815260200182805460018160011615610100020316600290048015610f295780601f10610efe57610100808354040283529160200191610f29565b820191906000526020600020905b815481529060010190602001808311610f0c57829003601f168201915b50505050508152505081526020019060010190610d1e565b505050508152505081526020019060010190610b87565b5050505090508083815181101515610f6c57fe5b90602001906020020151915050919050565b60016020528060005260406000206000915090508054600181600116156101000203166002900480601f0160208091040260200160405190810160405280929190818152602001828054600181600116156101000203166002900480156110265780601f10610ffb57610100808354040283529160200191611026565b820191906000526020600020905b81548152906001019060200180831161100957829003601f168201915b505050505081565b611036613bd4565b60405160200180807f4167656e63790000000000000000000000000000000000000000000000000000815250600601905060405160208183030381529060405280519060200120600160003373ffffffffffffffffffffffffffffffffffffffff1673ffffffffffffffffffffffffffffffffffffffff168152602001908152602001600020604051602001808280546001816001161561010002031660029004801561111a5780601f106110f857610100808354040283529182019161111a565b820191906000526020600020905b815481529060010190602001808311611106575b50509150506040516020818303038152906040528051906020012014151561114157600080fd5b6060600260003373ffffffffffffffffffffffffffffffffffffffff1673ffffffffffffffffffffffffffffffffffffffff168152602001908152602001600020805480602002602001604051908101604052809291908181526020016000905b828210156118a857838290600052602060002090600a0201610140604051908101604052908160008201548152602001600182018054600181600116156101000203166002900480601f01602080910402602001604051908101604052809291908181526020018280546001816001161561010002031660029004801561126a5780601f1061123f5761010080835404028352916020019161126a565b820191906000526020600020905b81548152906001019060200180831161124d57829003601f168201915b50505050508152602001600282018054600181600116156101000203166002900480601f01602080910402602001604051908101604052809291908181526020018280546001816001161561010002031660029004801561130c5780601f106112e15761010080835404028352916020019161130c565b820191906000526020600020905b8154815290600101906020018083116112ef57829003601f168201915b5050505050815260200160038201548152602001600482018054600181600116156101000203166002900480601f0160208091040260200160405190810160405280929190818152602001828054600181600116156101000203166002900480156113b85780601f1061138d576101008083540402835291602001916113b8565b820191906000526020600020905b81548152906001019060200180831161139b57829003601f168201915b50505050508152602001600582018054600181600116156101000203166002900480601f01602080910402602001604051908101604052809291908181526020018280546001816001161561010002031660029004801561145a5780601f1061142f5761010080835404028352916020019161145a565b820191906000526020600020905b81548152906001019060200180831161143d57829003601f168201915b50505050508152602001600682018054600181600116156101000203166002900480601f0160208091040260200160405190810160405280929190818152602001828054600181600116156101000203166002900480156114fc5780601f106114d1576101008083540402835291602001916114fc565b820191906000526020600020905b8154815290600101906020018083116114df57829003601f168201915b50505050508152602001600782018054600181600116156101000203166002900480601f01602080910402602001604051908101604052809291908181526020018280546001816001161561010002031660029004801561159e5780601f106115735761010080835404028352916020019161159e565b820191906000526020600020905b81548152906001019060200180831161158157829003601f168201915b50505050508152602001600882018054600181600116156101000203166002900480601f0160208091040260200160405190810160405280929190818152602001828054600181600116156101000203166002900480156116405780601f1061161557610100808354040283529160200191611640565b820191906000526020600020905b81548152906001019060200180831161162357829003601f168201915b5050505050815260200160098201805480602002602001604051908101604052809291908181526020016000905b8282101561189157838290600052602060002090600402016080604051908101604052908160008201548152602001600182018054600181600116156101000203166002900480601f0160208091040260200160405190810160405280929190818152602001828054600181600116156101000203166002900480156117355780601f1061170a57610100808354040283529160200191611735565b820191906000526020600020905b81548152906001019060200180831161171857829003601f168201915b50505050508152602001600282018054600181600116156101000203166002900480601f0160208091040260200160405190810160405280929190818152602001828054600181600116156101000203166002900480156117d75780601f106117ac576101008083540402835291602001916117d7565b820191906000526020600020905b8154815290600101906020018083116117ba57829003601f168201915b50505050508152602001600382018054600181600116156101000203166002900480601f0160208091040260200160405190810160405280929190818152602001828054600181600116156101000203166002900480156118795780601f1061184e57610100808354040283529160200191611879565b820191906000526020600020905b81548152906001019060200180831161185c57829003601f168201915b5050505050815250508152602001906001019061166e565b5050505081525050815260200190600101906111a2565b50505050905080838151811015156118bc57fe5b90602001906020020151915050919050565b6060600160008373ffffffffffffffffffffffffffffffffffffffff1673ffffffffffffffffffffffffffffffffffffffff1681526020019081526020016000208054600181600116156101000203166002900480601f0160208091040260200160405190810160405280929190818152602001828054600181600116156101000203166002900480156119a35780601f10611978576101008083540402835291602001916119a3565b820191906000526020600020905b81548152906001019060200180831161198657829003601f168201915b50505050509050919050565b6000602052806000526040600020600091509050806000018054600181600116156101000203166002900480601f016020809104026020016040519081016040528092919081815260200182805460018160011615610100020316600290048015611a5b5780601f10611a3057610100808354040283529160200191611a5b565b820191906000526020600020905b815481529060010190602001808311611a3e57829003601f168201915b505050505090806001018054600181600116156101000203166002900480601f016020809104026020016040519081016040528092919081815260200182805460018160011615610100020316600290048015611af95780601f10611ace57610100808354040283529160200191611af9565b820191906000526020600020905b815481529060010190602001808311611adc57829003601f168201915b5050505050905082565b600460205281600052604060002081815481101515611b1e57fe5b906000526020600020906007020160009150915050806000015490806001018054600181600116156101000203166002900480601f016020809104026020016040519081016040528092919081815260200182805460018160011615610100020316600290048015611bd15780601f10611ba657610100808354040283529160200191611bd1565b820191906000526020600020905b815481529060010190602001808311611bb457829003601f168201915b505050505090806002018054600181600116156101000203166002900480601f016020809104026020016040519081016040528092919081815260200182805460018160011615610100020316600290048015611c6f5780601f10611c4457610100808354040283529160200191611c6f565b820191906000526020600020905b815481529060010190602001808311611c5257829003601f168201915b505050505090806003018054600181600116156101000203166002900480601f016020809104026020016040519081016040528092919081815260200182805460018160011615610100020316600290048015611d0d5780601f10611ce257610100808354040283529160200191611d0d565b820191906000526020600020905b815481529060010190602001808311611cf057829003601f168201915b505050505090806004018054600181600116156101000203166002900480601f016020809104026020016040519081016040528092919081815260200182805460018160011615610100020316600290048015611dab5780601f10611d8057610100808354040283529160200191611dab565b820191906000526020600020905b815481529060010190602001808311611d8e57829003601f168201915b505050505090806005018054600181600116156101000203166002900480601f016020809104026020016040519081016040528092919081815260200182805460018160011615610100020316600290048015611e495780601f10611e1e57610100808354040283529160200191611e49565b820191906000526020600020905b815481529060010190602001808311611e2c57829003601f168201915b505050505090806006018054600181600116156101000203166002900480601f016020809104026020016040519081016040528092919081815260200182805460018160011615610100020316600290048015611ee75780601f10611ebc57610100808354040283529160200191611ee7565b820191906000526020600020905b815481529060010190602001808311611eca57829003601f168201915b5050505050905087565b600260205281600052604060002081815481101515611f0c57fe5b90600052602060002090600a020160009150915050806000015490806001018054600181600116156101000203166002900480601f016020809104026020016040519081016040528092919081815260200182805460018160011615610100020316600290048015611fbf5780601f10611f9457610100808354040283529160200191611fbf565b820191906000526020600020905b815481529060010190602001808311611fa257829003601f168201915b505050505090806002018054600181600116156101000203166002900480601f01602080910402602001604051908101604052809291908181526020018280546001816001161561010002031660029004801561205d5780601f106120325761010080835404028352916020019161205d565b820191906000526020600020905b81548152906001019060200180831161204057829003601f168201915b505050505090806003015490806004018054600181600116156101000203166002900480601f0160208091040260200160405190810160405280929190818152602001828054600181600116156101000203166002900480156121015780601f106120d657610100808354040283529160200191612101565b820191906000526020600020905b8154815290600101906020018083116120e457829003601f168201915b505050505090806005018054600181600116156101000203166002900480601f01602080910402602001604051908101604052809291908181526020018280546001816001161561010002031660029004801561219f5780601f106121745761010080835404028352916020019161219f565b820191906000526020600020905b81548152906001019060200180831161218257829003601f168201915b505050505090806006018054600181600116156101000203166002900480601f01602080910402602001604051908101604052809291908181526020018280546001816001161561010002031660029004801561223d5780601f106122125761010080835404028352916020019161223d565b820191906000526020600020905b81548152906001019060200180831161222057829003601f168201915b505050505090806007018054600181600116156101000203166002900480601f0160208091040260200160405190810160405280929190818152602001828054600181600116156101000203166002900480156122db5780601f106122b0576101008083540402835291602001916122db565b820191906000526020600020905b8154815290600101906020018083116122be57829003601f168201915b505050505090806008018054600181600116156101000203166002900480601f0160208091040260200160405190810160405280929190818152602001828054600181600116156101000203166002900480156123795780601f1061234e57610100808354040283529160200191612379565b820191906000526020600020905b81548152906001019060200180831161235c57829003601f168201915b5050505050905089565b606060405160200180807f4167656e63790000000000000000000000000000000000000000000000000000815250600601905060405160208183030381529060405280519060200120600160003373ffffffffffffffffffffffffffffffffffffffff1673ffffffffffffffffffffffffffffffffffffffff16815260200190815260200160002060405160200180828054600181600116156101000203166002900480156124695780601f10612447576101008083540402835291820191612469565b820191906000526020600020905b815481529060010190602001808311612455575b50509150506040516020818303038152906040528051906020012014151561249057600080fd5b600260003373ffffffffffffffffffffffffffffffffffffffff1673ffffffffffffffffffffffffffffffffffffffff168152602001908152602001600020805480602002602001604051908101604052809291908181526020016000905b82821015612bf557838290600052602060002090600a0201610140604051908101604052908160008201548152602001600182018054600181600116156101000203166002900480601f0160208091040260200160405190810160405280929190818152602001828054600181600116156101000203166002900480156125b75780601f1061258c576101008083540402835291602001916125b7565b820191906000526020600020905b81548152906001019060200180831161259a57829003601f168201915b50505050508152602001600282018054600181600116156101000203166002900480601f0160208091040260200160405190810160405280929190818152602001828054600181600116156101000203166002900480156126595780601f1061262e57610100808354040283529160200191612659565b820191906000526020600020905b81548152906001019060200180831161263c57829003601f168201915b5050505050815260200160038201548152602001600482018054600181600116156101000203166002900480601f0160208091040260200160405190810160405280929190818152602001828054600181600116156101000203166002900480156127055780601f106126da57610100808354040283529160200191612705565b820191906000526020600020905b8154815290600101906020018083116126e857829003601f168201915b50505050508152602001600582018054600181600116156101000203166002900480601f0160208091040260200160405190810160405280929190818152602001828054600181600116156101000203166002900480156127a75780601f1061277c576101008083540402835291602001916127a7565b820191906000526020600020905b81548152906001019060200180831161278a57829003601f168201915b50505050508152602001600682018054600181600116156101000203166002900480601f0160208091040260200160405190810160405280929190818152602001828054600181600116156101000203166002900480156128495780601f1061281e57610100808354040283529160200191612849565b820191906000526020600020905b81548152906001019060200180831161282c57829003601f168201915b50505050508152602001600782018054600181600116156101000203166002900480601f0160208091040260200160405190810160405280929190818152602001828054600181600116156101000203166002900480156128eb5780601f106128c0576101008083540402835291602001916128eb565b820191906000526020600020905b8154815290600101906020018083116128ce57829003601f168201915b50505050508152602001600882018054600181600116156101000203166002900480601f01602080910402602001604051908101604052809291908181526020018280546001816001161561010002031660029004801561298d5780601f106129625761010080835404028352916020019161298d565b820191906000526020600020905b81548152906001019060200180831161297057829003601f168201915b5050505050815260200160098201805480602002602001604051908101604052809291908181526020016000905b82821015612bde57838290600052602060002090600402016080604051908101604052908160008201548152602001600182018054600181600116156101000203166002900480601f016020809104026020016040519081016040528092919081815260200182805460018160011615610100020316600290048015612a825780601f10612a5757610100808354040283529160200191612a82565b820191906000526020600020905b815481529060010190602001808311612a6557829003601f168201915b50505050508152602001600282018054600181600116156101000203166002900480601f016020809104026020016040519081016040528092919081815260200182805460018160011615610100020316600290048015612b245780601f10612af957610100808354040283529160200191612b24565b820191906000526020600020905b815481529060010190602001808311612b0757829003601f168201915b50505050508152602001600382018054600181600116156101000203166002900480601f016020809104026020016040519081016040528092919081815260200182805460018160011615610100020316600290048015612bc65780601f10612b9b57610100808354040283529160200191612bc6565b820191906000526020600020905b815481529060010190602001808311612ba957829003601f168201915b505050505081525050815260200190600101906129bb565b5050505081525050815260200190600101906124ef565b50505050905090565b606060405160200180807f4167656e63790000000000000000000000000000000000000000000000000000815250600601905060405160208183030381529060405280519060200120600160003373ffffffffffffffffffffffffffffffffffffffff1673ffffffffffffffffffffffffffffffffffffffff1681526020019081526020016000206040516020018082805460018160011615610100020316600290048015612ce45780601f10612cc2576101008083540402835291820191612ce4565b820191906000526020600020905b815481529060010190602001808311612cd0575b505091505060405160208183030381529060405280519060200120141515612d0b57600080fd5b600360003373ffffffffffffffffffffffffffffffffffffffff1673ffffffffffffffffffffffffffffffffffffffff168152602001908152602001600020805480602002602001604051908101604052809291908181526020016000905b8282101561313b57838290600052602060002090600402016080604051908101604052908160008201548152602001600182018054600181600116156101000203166002900480601f016020809104026020016040519081016040528092919081815260200182805460018160011615610100020316600290048015612e315780601f10612e0657610100808354040283529160200191612e31565b820191906000526020600020905b815481529060010190602001808311612e1457829003601f168201915b50505050508152602001600282018054600181600116156101000203166002900480601f016020809104026020016040519081016040528092919081815260200182805460018160011615610100020316600290048015612ed35780601f10612ea857610100808354040283529160200191612ed3565b820191906000526020600020905b815481529060010190602001808311612eb657829003601f168201915b5050505050815260200160038201805480602002602001604051908101604052809291908181526020016000905b8282101561312457838290600052602060002090600402016080604051908101604052908160008201548152602001600182018054600181600116156101000203166002900480601f016020809104026020016040519081016040528092919081815260200182805460018160011615610100020316600290048015612fc85780601f10612f9d57610100808354040283529160200191612fc8565b820191906000526020600020905b815481529060010190602001808311612fab57829003601f168201915b50505050508152602001600282018054600181600116156101000203166002900480601f01602080910402602001604051908101604052809291908181526020018280546001816001161561010002031660029004801561306a5780601f1061303f5761010080835404028352916020019161306a565b820191906000526020600020905b81548152906001019060200180831161304d57829003601f168201915b50505050508152602001600382018054600181600116156101000203166002900480601f01602080910402602001604051908101604052809291908181526020018280546001816001161561010002031660029004801561310c5780601f106130e15761010080835404028352916020019161310c565b820191906000526020600020905b8154815290600101906020018083116130ef57829003601f168201915b50505050508152505081526020019060010190612f01565b505050508152505081526020019060010190612d6a565b50505050905090565b60036020528160005260406000208181548110151561315f57fe5b906000526020600020906004020160009150915050806000015490806001018054600181600116156101000203166002900480601f0160208091040260200160405190810160405280929190818152602001828054600181600116156101000203166002900480156132125780601f106131e757610100808354040283529160200191613212565b820191906000526020600020905b8154815290600101906020018083116131f557829003601f168201915b505050505090806002018054600181600116156101000203166002900480601f0160208091040260200160405190810160405280929190818152602001828054600181600116156101000203166002900480156132b05780601f10613285576101008083540402835291602001916132b0565b820191906000526020600020905b81548152906001019060200180831161329357829003601f168201915b5050505050905083565b60405160200180807f4167656e63790000000000000000000000000000000000000000000000000000815250600601905060405160208183030381529060405280519060200120600160003373ffffffffffffffffffffffffffffffffffffffff1673ffffffffffffffffffffffffffffffffffffffff168152602001908152602001600020604051602001808280546001816001161561010002031660029004801561339e5780601f1061337c57610100808354040283529182019161339e565b820191906000526020600020905b81548152906001019060200180831161338a575b5050915050604051602081830303815290604052805190602001201415156133c557600080fd5b6000600460003373ffffffffffffffffffffffffffffffffffffffff1673ffffffffffffffffffffffffffffffffffffffff168152602001908152602001600020805490509050600460003373ffffffffffffffffffffffffffffffffffffffff1673ffffffffffffffffffffffffffffffffffffffff16815260200190815260200160002060e0604051908101604052808a815260200189815260200188815260200187815260200186815260200185815260200184815250908060018154018082558091505090600182039060005260206000209060070201600090919290919091506000820151816000015560208201518160010190805190602001906134d0929190613c28565b5060408201518160020190805190602001906134ed929190613c28565b50606082015181600301908051906020019061350a929190613c28565b506080820151816004019080519060200190613527929190613c28565b5060a0820151816005019080519060200190613544929190613c28565b5060c0820151816006019080519060200190613561929190613c28565b505050505050505050505050565b606060405160200180807f4167656e63790000000000000000000000000000000000000000000000000000815250600601905060405160208183030381529060405280519060200120600160003373ffffffffffffffffffffffffffffffffffffffff1673ffffffffffffffffffffffffffffffffffffffff16815260200190815260200160002060405160200180828054600181600116156101000203166002900480156136555780601f10613633576101008083540402835291820191613655565b820191906000526020600020905b815481529060010190602001808311613641575b50509150506040516020818303038152906040528051906020012014151561367c57600080fd5b600460003373ffffffffffffffffffffffffffffffffffffffff1673ffffffffffffffffffffffffffffffffffffffff168152602001908152602001600020805480602002602001604051908101604052809291908181526020016000905b82821015613ae4578382906000526020600020906007020160e0604051908101604052908160008201548152602001600182018054600181600116156101000203166002900480601f0160208091040260200160405190810160405280929190818152602001828054600181600116156101000203166002900480156137a25780601f10613777576101008083540402835291602001916137a2565b820191906000526020600020905b81548152906001019060200180831161378557829003601f168201915b50505050508152602001600282018054600181600116156101000203166002900480601f0160208091040260200160405190810160405280929190818152602001828054600181600116156101000203166002900480156138445780601f1061381957610100808354040283529160200191613844565b820191906000526020600020905b81548152906001019060200180831161382757829003601f168201915b50505050508152602001600382018054600181600116156101000203166002900480601f0160208091040260200160405190810160405280929190818152602001828054600181600116156101000203166002900480156138e65780601f106138bb576101008083540402835291602001916138e6565b820191906000526020600020905b8154815290600101906020018083116138c957829003601f168201915b50505050508152602001600482018054600181600116156101000203166002900480601f0160208091040260200160405190810160405280929190818152602001828054600181600116156101000203166002900480156139885780601f1061395d57610100808354040283529160200191613988565b820191906000526020600020905b81548152906001019060200180831161396b57829003601f168201915b50505050508152602001600582018054600181600116156101000203166002900480601f016020809104026020016040519081016040528092919081815260200182805460018160011615610100020316600290048015613a2a5780601f106139ff57610100808354040283529160200191613a2a565b820191906000526020600020905b815481529060010190602001808311613a0d57829003601f168201915b50505050508152602001600682018054600181600116156101000203166002900480601f016020809104026020016040519081016040528092919081815260200182805460018160011615610100020316600290048015613acc5780601f10613aa157610100808354040283529160200191613acc565b820191906000526020600020905b815481529060010190602001808311613aaf57829003601f168201915b505050505081525050815260200190600101906136db565b50505050905090565b60e060405190810160405280600081526020016060815260200160608152602001606081526020016060815260200160608152602001606081525090565b828054600181600116156101000203166002900490600052602060002090601f016020900481019282601f10613b6c57805160ff1916838001178555613b9a565b82800160010185558215613b9a579182015b82811115613b99578251825591602001919060010190613b7e565b5b509050613ba79190613ca8565b5090565b608060405190810160405280600081526020016060815260200160608152602001606081525090565b61014060405190810160405280600081526020016060815260200160608152602001600081526020016060815260200160608152602001606081526020016060815260200160608152602001606081525090565b828054600181600116156101000203166002900490600052602060002090601f016020900481019282601f10613c6957805160ff1916838001178555613c97565b82800160010185558215613c97579182015b82811115613c96578251825591602001919060010190613c7b565b5b509050613ca49190613ca8565b5090565b613cca91905b80821115613cc6576000816000905550600101613cae565b5090565b90565b6000613cd98235614a85565b905092915050565b600082601f8301121515613cf457600080fd5b8135613d07613d0282614985565b614958565b91508082526020830160208301858383011115613d2357600080fd5b613d2e838284614aa1565b50505092915050565b6000613d438235614a97565b905092915050565b600060208284031215613d5d57600080fd5b6000613d6b84828501613ccd565b91505092915050565b60008060408385031215613d8757600080fd5b6000613d9585828601613ccd565b925050602083013567ffffffffffffffff811115613db257600080fd5b613dbe85828601613ce1565b9150509250929050565b60008060408385031215613ddb57600080fd5b6000613de985828601613ccd565b9250506020613dfa85828601613d37565b9150509250929050565b600060208284031215613e1657600080fd5b6000613e2484828501613d37565b91505092915050565b600080600080600080600060e0888a031215613e4857600080fd5b6000613e568a828b01613d37565b975050602088013567ffffffffffffffff811115613e7357600080fd5b613e7f8a828b01613ce1565b965050604088013567ffffffffffffffff811115613e9c57600080fd5b613ea88a828b01613ce1565b955050606088013567ffffffffffffffff811115613ec557600080fd5b613ed18a828b01613ce1565b945050608088013567ffffffffffffffff811115613eee57600080fd5b613efa8a828b01613ce1565b93505060a088013567ffffffffffffffff811115613f1757600080fd5b613f238a828b01613ce1565b92505060c088013567ffffffffffffffff811115613f4057600080fd5b613f4c8a828b01613ce1565b91505092959891949750929550565b6000613f66826149e5565b80845260208401935083602082028501613f7f856149b1565b60005b84811015613fb8578383038852613f9a83835161428a565b9250613fa582614a27565b9150602088019750600181019050613f82565b508196508694505050505092915050565b6000613fd4826149f0565b80845260208401935083602082028501613fed856149be565b60005b84811015614026578383038852614008838351614406565b925061401382614a34565b9150602088019750600181019050613ff0565b508196508694505050505092915050565b6000614042826149fb565b8084526020840193508360208202850161405b856149cb565b60005b84811015614094578383038852614076838351614536565b925061408182614a41565b915060208801975060018101905061405e565b508196508694505050505092915050565b60006140b082614a06565b808452602084019350836020820285016140c9856149d8565b60005b848110156141025783830388526140e48383516145f5565b92506140ef82614a4e565b91506020880197506001810190506140cc565b508196508694505050505092915050565b600061411e82614a1c565b808452614132816020860160208601614ab0565b61413b81614ae3565b602085010191505092915050565b600061415482614a11565b808452614168816020860160208601614ab0565b61417181614ae3565b602085010191505092915050565b6000610140830160008301516141986000860182614666565b50602083015184820360208601526141b08282614149565b915050604083015184820360408601526141ca8282614149565b91505060608301516141df6060860182614666565b50608083015184820360808601526141f78282614149565b91505060a083015184820360a08601526142118282614149565b91505060c083015184820360c086015261422b8282614149565b91505060e083015184820360e08601526142458282614149565b9150506101008301518482036101008601526142618282614149565b91505061012083015184820361012086015261427d82826140a5565b9150508091505092915050565b6000610140830160008301516142a36000860182614666565b50602083015184820360208601526142bb8282614149565b915050604083015184820360408601526142d58282614149565b91505060608301516142ea6060860182614666565b50608083015184820360808601526143028282614149565b91505060a083015184820360a086015261431c8282614149565b91505060c083015184820360c08601526143368282614149565b91505060e083015184820360e08601526143508282614149565b91505061010083015184820361010086015261436c8282614149565b91505061012083015184820361012086015261438882826140a5565b9150508091505092915050565b60006080830160008301516143ad6000860182614666565b50602083015184820360208601526143c58282614149565b915050604083015184820360408601526143df8282614149565b915050606083015184820360608601526143f982826140a5565b9150508091505092915050565b600060808301600083015161441e6000860182614666565b50602083015184820360208601526144368282614149565b915050604083015184820360408601526144508282614149565b9150506060830151848203606086015261446a82826140a5565b9150508091505092915050565b600060e08301600083015161448f6000860182614666565b50602083015184820360208601526144a78282614149565b915050604083015184820360408601526144c18282614149565b915050606083015184820360608601526144db8282614149565b915050608083015184820360808601526144f58282614149565b91505060a083015184820360a086015261450f8282614149565b91505060c083015184820360c08601526145298282614149565b9150508091505092915050565b600060e08301600083015161454e6000860182614666565b50602083015184820360208601526145668282614149565b915050604083015184820360408601526145808282614149565b9150506060830151848203606086015261459a8282614149565b915050608083015184820360808601526145b48282614149565b91505060a083015184820360a08601526145ce8282614149565b91505060c083015184820360c08601526145e88282614149565b9150508091505092915050565b600060808301600083015161460d6000860182614666565b50602083015184820360208601526146258282614149565b9150506040830151848203604086015261463f8282614149565b915050606083015184820360608601526146598282614149565b9150508091505092915050565b61466f81614a7b565b82525050565b6000602082019050818103600083015261468f8184613f5b565b905092915050565b600060208201905081810360008301526146b18184613fc9565b905092915050565b600060208201905081810360008301526146d38184614037565b905092915050565b600060208201905081810360008301526146f58184614149565b905092915050565b600060208201905081810360008301526147178184614113565b905092915050565b600060408201905081810360008301526147398185614149565b9050818103602083015261474d8184614149565b90509392505050565b60006020820190508181036000830152614770818461417f565b905092915050565b600060208201905081810360008301526147928184614395565b905092915050565b600060208201905081810360008301526147b48184614477565b905092915050565b60006060820190506147d16000830186614666565b81810360208301526147e38185614149565b905081810360408301526147f78184614149565b9050949350505050565b600060e082019050614816600083018a614666565b81810360208301526148288189614149565b9050818103604083015261483c8188614149565b905081810360608301526148508187614149565b905081810360808301526148648186614149565b905081810360a08301526148788185614149565b905081810360c083015261488c8184614149565b905098975050505050505050565b6000610120820190506148b0600083018c614666565b81810360208301526148c2818b614149565b905081810360408301526148d6818a614149565b90506148e56060830189614666565b81810360808301526148f78188614149565b905081810360a083015261490b8187614149565b905081810360c083015261491f8186614149565b905081810360e08301526149338185614149565b90508181036101008301526149488184614149565b90509a9950505050505050505050565b6000604051905081810181811067ffffffffffffffff8211171561497b57600080fd5b8060405250919050565b600067ffffffffffffffff82111561499c57600080fd5b601f19601f8301169050602081019050919050565b6000602082019050919050565b6000602082019050919050565b6000602082019050919050565b6000602082019050919050565b600081519050919050565b600081519050919050565b600081519050919050565b600081519050919050565b600081519050919050565b600081519050919050565b6000602082019050919050565b6000602082019050919050565b6000602082019050919050565b6000602082019050919050565b600073ffffffffffffffffffffffffffffffffffffffff82169050919050565b6000819050919050565b6000614a9082614a5b565b9050919050565b6000819050919050565b82818337600083830152505050565b60005b83811015614ace578082015181840152602081019050614ab3565b83811115614add576000848401525b50505050565b6000601f19601f830116905091905056fea265627a7a72305820b39682de1ba4b85c7494b1c7b3e5e8fb2e7fe4b4a4e03dbd18314f211cb3b7526c6578706572696d656e74616cf50037",
  "source": "pragma solidity >=0.4.21 <0.7.0;\npragma experimental ABIEncoderV2;\n\ncontract SimpleStorage {\n\n  struct LegalCase {\n  \tuint caseNo;\n  \tstring childName;\n  \tstring lawyer;\n  \tstring date;\n  \tstring socialWorker;\n  \tstring court;\n  \tstring caseHash;\n  }\n\n  struct Report {\n  \tuint reportNo;\n  \tstring date;\n  \tstring socialWorker;\n  \tstring reportIpfs;\n  }\n\n  struct FosterHome {\n  \tuint id;\n  \tstring firstName;\n  \tstring lastName;\n  \tuint rating;\n  \tstring spouse;\n  \tstring houseAddress;\n  \tstring dateJoined;\n  \tstring employer;\n  \tstring backgroundIpfs;\n  \tReport[] reports;\n  }\n\n  struct FosterKid {\n  \tuint id;\n  \tstring firstName;\n  \tstring lastName;\n  \tReport[] reports;\n  }\n\n  struct Agency {\n  \tstring name;\n  \tstring location;\n  }\n\n  mapping(address => Agency) public agency;\n  mapping(address => string) public status;\n  mapping(address => FosterHome[]) public registeredHome;\n  mapping(address => FosterKid[]) public fosterKid;\n  mapping(address => LegalCase[]) public cases;\n\n  function setUser(address _address, string memory _status) public{\n    require(msg.sender == _address);\n    status[_address] = _status;\n  }\n\n  function getUser(address _address) public view returns (string memory){\n      return status[_address];\n  }\n\n  // function addHome(string memory _firstName, string memory _lastName, uint _rating, string memory _spouse, address _address, string memory _houseAddress, string memory _dateJoined, string memory _employer, string memory hash) public {\n  // \trequire(keccak256(abi.encodePacked(status[msg.sender])) == keccak256(abi.encodePacked('Agency')));\n  // \t//require(keccak256(abi.encodePacked(status[_address])) == keccak256(abi.encodePacked('Home')));\n  // \tReport[] memory reports;\n  // \tuint index = registeredHome[msg.sender].length;\n  // \tregisteredHome[msg.sender].push(FosterHome(index, _firstName, _lastName, _rating, _spouse, _houseAddress, _dateJoined, _employer, hash, reports));\n  // }\n\n  // function addReport(string partyInvolved, uint _reportNo, string memory date, string memory _socialWorker, string memory hash) public {\n  // \trequire(keccak256(abi.encodePacked(status[msg.sender])) == keccak256(abi.encodePacked('Agency')));\n  // \tif(partyInvolved == ''){\n  // \t\tuint index = report[_address].length;\n  // \t\tregisteredHome[msg.sender]().push(Report(_reportNo, date, _socialWorker, hash));\n  // \t}\n  // \telse{\n  // \t\tfosterKid[msg.sender](index).push(Report(_reportNo, date, _socialWorker, hash));\n  // \t}\n  // \t// report[_address].push(Report(_reportNo, date, _socialWorker, hash));\n  // }\n\n  function viewHomes() public view returns (FosterHome[] memory){\n  \trequire(keccak256(abi.encodePacked(status[msg.sender])) == keccak256(abi.encodePacked('Agency')));\n      return registeredHome[msg.sender];\n  }\n\n  function viewHome(uint id) public view returns (FosterHome memory){\n  \trequire(keccak256(abi.encodePacked(status[msg.sender])) == keccak256(abi.encodePacked('Agency')));\n  \tFosterHome[] memory homes = registeredHome[msg.sender];\n     return homes[id];\n     // return homes(id);\n  }\n\n  function viewFosterKids() public view returns (FosterKid[] memory){\n    require(keccak256(abi.encodePacked(status[msg.sender])) == keccak256(abi.encodePacked('Agency')));\n\treturn fosterKid[msg.sender];\n  }\n\n  function viewFosterKid(uint id) public view returns (FosterKid memory){\n    require(keccak256(abi.encodePacked(status[msg.sender])) == keccak256(abi.encodePacked('Agency')));\n    FosterKid[] memory kids = fosterKid[msg.sender];\n\treturn kids[id];\n\t// return fosters(id);\n  }\n\n  function addCase(uint _caseNo , string memory _name, string memory _lawyer, string memory _date, string memory _socialWorker, string memory _court, string memory hash) public {\n  \trequire(keccak256(abi.encodePacked(status[msg.sender])) == keccak256(abi.encodePacked('Agency')));\n  \tuint index = cases[msg.sender].length;\n  \tcases[msg.sender].push(LegalCase(_caseNo, _name, _lawyer, _date, _socialWorker, _court, hash));\n  }\n\n  function viewCases() public view returns (LegalCase[] memory) {\n  \trequire(keccak256(abi.encodePacked(status[msg.sender])) == keccak256(abi.encodePacked('Agency')));\n  \treturn cases[msg.sender];\n  }\n\n  function viewCase(uint id) public view returns (LegalCase memory) {\n  \trequire(keccak256(abi.encodePacked(status[msg.sender])) == keccak256(abi.encodePacked('Agency')));\n  \t// return cases[msg.sender](id);\n  \tLegalCase[] memory legalCases = cases[msg.sender];\n  \treturn legalCases[id];\n  }\n\n}\n",
  "sourcePath": "/Users/oluwafisayooke/Desktop/Tavhack/weCare/contracts/SimpleStorage.sol",
  "compiler": {
    "name": "solc",
    "version": "0.5.0+commit.1d4f565a.Emscripten.clang"
  },
  "schemaVersion": "3.0.6",
  "updatedAt": "2020-01-16T23:56:33.304Z",
  "devdoc": {
    "methods": {}
  },
  "userdoc": {
    "methods": {}
  }
}